{
  "_format": "hh-sol-artifact-1",
  "contractName": "Upload",
  "sourceName": "contracts/Upload.sol",
  "abi": [
    {
      "inputs": [
        {
          "internalType": "address",
          "name": "_user",
          "type": "address"
        },
        {
          "internalType": "string",
          "name": "url",
          "type": "string"
        },
        {
          "internalType": "string",
          "name": "fileType",
          "type": "string"
        },
        {
          "internalType": "bool",
          "name": "isFolder",
          "type": "bool"
        }
      ],
      "name": "add",
      "outputs": [],
      "stateMutability": "nonpayable",
      "type": "function"
    },
    {
      "inputs": [
        {
          "internalType": "address",
          "name": "user",
          "type": "address"
        }
      ],
      "name": "allow",
      "outputs": [],
      "stateMutability": "nonpayable",
      "type": "function"
    },
    {
      "inputs": [
        {
          "internalType": "address",
          "name": "user",
          "type": "address"
        }
      ],
      "name": "disallow",
      "outputs": [],
      "stateMutability": "nonpayable",
      "type": "function"
    },
    {
      "inputs": [
        {
          "internalType": "address",
          "name": "_user",
          "type": "address"
        }
      ],
      "name": "display",
      "outputs": [
        {
          "components": [
            {
              "internalType": "string",
              "name": "url",
              "type": "string"
            },
            {
              "internalType": "string",
              "name": "fileType",
              "type": "string"
            },
            {
              "internalType": "bool",
              "name": "isFolder",
              "type": "bool"
            }
          ],
          "internalType": "struct Upload.File[]",
          "name": "",
          "type": "tuple[]"
        }
      ],
      "stateMutability": "view",
      "type": "function"
    },
    {
      "inputs": [],
      "name": "shareAccess",
      "outputs": [
        {
          "components": [
            {
              "internalType": "address",
              "name": "user",
              "type": "address"
            },
            {
              "internalType": "bool",
              "name": "access",
              "type": "bool"
            }
          ],
          "internalType": "struct Upload.Access[]",
          "name": "",
          "type": "tuple[]"
        }
      ],
      "stateMutability": "view",
      "type": "function"
    }
  ],
  "bytecode": "0x608060405234801561001057600080fd5b506115f7806100206000396000f3fe608060405234801561001057600080fd5b50600436106100575760003560e01c80634b7872ec1461005c578063a9ed9cb814610078578063bc8bef8114610094578063eb39113f146100b2578063ff9913e8146100e2575b600080fd5b61007660048036038101906100719190610e12565b6100fe565b005b610092600480360381019061008d9190610eb1565b6101d6565b005b61009c6103f8565b6040516100a99190610fda565b60405180910390f35b6100cc60048036038101906100c79190610eb1565b610501565b6040516100d99190611194565b60405180910390f35b6100fc60048036038101906100f79190610eb1565b6107dc565b005b6000808573ffffffffffffffffffffffffffffffffffffffff1673ffffffffffffffffffffffffffffffffffffffff16815260200190815260200160002060405180606001604052808581526020018481526020018315158152509080600181540180825580915050600190039060005260206000209060030201600090919091909150600082015181600001908161019791906113cc565b5060208201518160010190816101ad91906113cc565b5060408201518160020160006101000a81548160ff021916908315150217905550505050505050565b6000600160003373ffffffffffffffffffffffffffffffffffffffff1673ffffffffffffffffffffffffffffffffffffffff16815260200190815260200160002060008373ffffffffffffffffffffffffffffffffffffffff1673ffffffffffffffffffffffffffffffffffffffff16815260200190815260200160002060006101000a81548160ff02191690831515021790555060005b600260003373ffffffffffffffffffffffffffffffffffffffff1673ffffffffffffffffffffffffffffffffffffffff168152602001908152602001600020805490508110156103f4578173ffffffffffffffffffffffffffffffffffffffff16600260003373ffffffffffffffffffffffffffffffffffffffff1673ffffffffffffffffffffffffffffffffffffffff16815260200190815260200160002082815481106103205761031f61149e565b5b9060005260206000200160000160009054906101000a900473ffffffffffffffffffffffffffffffffffffffff1673ffffffffffffffffffffffffffffffffffffffff16036103e1576000600260003373ffffffffffffffffffffffffffffffffffffffff1673ffffffffffffffffffffffffffffffffffffffff16815260200190815260200160002082815481106103bc576103bb61149e565b5b9060005260206000200160000160146101000a81548160ff0219169083151502179055505b80806103ec906114fc565b91505061026e565b5050565b6060600260003373ffffffffffffffffffffffffffffffffffffffff1673ffffffffffffffffffffffffffffffffffffffff168152602001908152602001600020805480602002602001604051908101604052809291908181526020016000905b828210156104f8578382906000526020600020016040518060400160405290816000820160009054906101000a900473ffffffffffffffffffffffffffffffffffffffff1673ffffffffffffffffffffffffffffffffffffffff1673ffffffffffffffffffffffffffffffffffffffff1681526020016000820160149054906101000a900460ff16151515158152505081526020019060010190610459565b50505050905090565b60603373ffffffffffffffffffffffffffffffffffffffff168273ffffffffffffffffffffffffffffffffffffffff1614806105c35750600160008373ffffffffffffffffffffffffffffffffffffffff1673ffffffffffffffffffffffffffffffffffffffff16815260200190815260200160002060003373ffffffffffffffffffffffffffffffffffffffff1673ffffffffffffffffffffffffffffffffffffffff16815260200190815260200160002060009054906101000a900460ff165b610602576040517f08c379a00000000000000000000000000000000000000000000000000000000081526004016105f9906115a1565b60405180910390fd5b6000808373ffffffffffffffffffffffffffffffffffffffff1673ffffffffffffffffffffffffffffffffffffffff168152602001908152602001600020805480602002602001604051908101604052809291908181526020016000905b828210156107d15783829060005260206000209060030201604051806060016040529081600082018054610693906111e5565b80601f01602080910402602001604051908101604052809291908181526020018280546106bf906111e5565b801561070c5780601f106106e15761010080835404028352916020019161070c565b820191906000526020600020905b8154815290600101906020018083116106ef57829003601f168201915b50505050508152602001600182018054610725906111e5565b80601f0160208091040260200160405190810160405280929190818152602001828054610751906111e5565b801561079e5780601f106107735761010080835404028352916020019161079e565b820191906000526020600020905b81548152906001019060200180831161078157829003601f168201915b505050505081526020016002820160009054906101000a900460ff16151515158152505081526020019060010190610660565b505050509050919050565b60018060003373ffffffffffffffffffffffffffffffffffffffff1673ffffffffffffffffffffffffffffffffffffffff16815260200190815260200160002060008373ffffffffffffffffffffffffffffffffffffffff1673ffffffffffffffffffffffffffffffffffffffff16815260200190815260200160002060006101000a81548160ff021916908315150217905550600360003373ffffffffffffffffffffffffffffffffffffffff1673ffffffffffffffffffffffffffffffffffffffff16815260200190815260200160002060008273ffffffffffffffffffffffffffffffffffffffff1673ffffffffffffffffffffffffffffffffffffffff16815260200190815260200160002060009054906101000a900460ff1615610a8e5760005b600260003373ffffffffffffffffffffffffffffffffffffffff1673ffffffffffffffffffffffffffffffffffffffff16815260200190815260200160002080549050811015610a88578173ffffffffffffffffffffffffffffffffffffffff16600260003373ffffffffffffffffffffffffffffffffffffffff1673ffffffffffffffffffffffffffffffffffffffff16815260200190815260200160002082815481106109b4576109b361149e565b5b9060005260206000200160000160009054906101000a900473ffffffffffffffffffffffffffffffffffffffff1673ffffffffffffffffffffffffffffffffffffffff1603610a75576001600260003373ffffffffffffffffffffffffffffffffffffffff1673ffffffffffffffffffffffffffffffffffffffff1681526020019081526020016000208281548110610a5057610a4f61149e565b5b9060005260206000200160000160146101000a81548160ff0219169083151502179055505b8080610a80906114fc565b915050610902565b50610c1f565b600260003373ffffffffffffffffffffffffffffffffffffffff1673ffffffffffffffffffffffffffffffffffffffff16815260200190815260200160002060405180604001604052808373ffffffffffffffffffffffffffffffffffffffff168152602001600115158152509080600181540180825580915050600190039060005260206000200160009091909190915060008201518160000160006101000a81548173ffffffffffffffffffffffffffffffffffffffff021916908373ffffffffffffffffffffffffffffffffffffffff16021790555060208201518160000160146101000a81548160ff02191690831515021790555050506001600360003373ffffffffffffffffffffffffffffffffffffffff1673ffffffffffffffffffffffffffffffffffffffff16815260200190815260200160002060008373ffffffffffffffffffffffffffffffffffffffff1673ffffffffffffffffffffffffffffffffffffffff16815260200190815260200160002060006101000a81548160ff0219169083151502179055505b50565b6000604051905090565b600080fd5b600080fd5b600073ffffffffffffffffffffffffffffffffffffffff82169050919050565b6000610c6182610c36565b9050919050565b610c7181610c56565b8114610c7c57600080fd5b50565b600081359050610c8e81610c68565b92915050565b600080fd5b600080fd5b6000601f19601f8301169050919050565b7f4e487b7100000000000000000000000000000000000000000000000000000000600052604160045260246000fd5b610ce782610c9e565b810181811067ffffffffffffffff82111715610d0657610d05610caf565b5b80604052505050565b6000610d19610c22565b9050610d258282610cde565b919050565b600067ffffffffffffffff821115610d4557610d44610caf565b5b610d4e82610c9e565b9050602081019050919050565b82818337600083830152505050565b6000610d7d610d7884610d2a565b610d0f565b905082815260208101848484011115610d9957610d98610c99565b5b610da4848285610d5b565b509392505050565b600082601f830112610dc157610dc0610c94565b5b8135610dd1848260208601610d6a565b91505092915050565b60008115159050919050565b610def81610dda565b8114610dfa57600080fd5b50565b600081359050610e0c81610de6565b92915050565b60008060008060808587031215610e2c57610e2b610c2c565b5b6000610e3a87828801610c7f565b945050602085013567ffffffffffffffff811115610e5b57610e5a610c31565b5b610e6787828801610dac565b935050604085013567ffffffffffffffff811115610e8857610e87610c31565b5b610e9487828801610dac565b9250506060610ea587828801610dfd565b91505092959194509250565b600060208284031215610ec757610ec6610c2c565b5b6000610ed584828501610c7f565b91505092915050565b600081519050919050565b600082825260208201905092915050565b6000819050602082019050919050565b610f1381610c56565b82525050565b610f2281610dda565b82525050565b604082016000820151610f3e6000850182610f0a565b506020820151610f516020850182610f19565b50505050565b6000610f638383610f28565b60408301905092915050565b6000602082019050919050565b6000610f8782610ede565b610f918185610ee9565b9350610f9c83610efa565b8060005b83811015610fcd578151610fb48882610f57565b9750610fbf83610f6f565b925050600181019050610fa0565b5085935050505092915050565b60006020820190508181036000830152610ff48184610f7c565b905092915050565b600081519050919050565b600082825260208201905092915050565b6000819050602082019050919050565b600081519050919050565b600082825260208201905092915050565b60005b83811015611062578082015181840152602081019050611047565b60008484015250505050565b600061107982611028565b6110838185611033565b9350611093818560208601611044565b61109c81610c9e565b840191505092915050565b600060608301600083015184820360008601526110c4828261106e565b915050602083015184820360208601526110de828261106e565b91505060408301516110f36040860182610f19565b508091505092915050565b600061110a83836110a7565b905092915050565b6000602082019050919050565b600061112a82610ffc565b6111348185611007565b93508360208202850161114685611018565b8060005b85811015611182578484038952815161116385826110fe565b945061116e83611112565b925060208a0199505060018101905061114a565b50829750879550505050505092915050565b600060208201905081810360008301526111ae818461111f565b905092915050565b7f4e487b7100000000000000000000000000000000000000000000000000000000600052602260045260246000fd5b600060028204905060018216806111fd57607f821691505b6020821081036112105761120f6111b6565b5b50919050565b60008190508160005260206000209050919050565b60006020601f8301049050919050565b600082821b905092915050565b6000600883026112787fffffffffffffffffffffffffffffffffffffffffffffffffffffffffffffffff8261123b565b611282868361123b565b95508019841693508086168417925050509392505050565b6000819050919050565b6000819050919050565b60006112c96112c46112bf8461129a565b6112a4565b61129a565b9050919050565b6000819050919050565b6112e3836112ae565b6112f76112ef826112d0565b848454611248565b825550505050565b600090565b61130c6112ff565b6113178184846112da565b505050565b5b8181101561133b57611330600082611304565b60018101905061131d565b5050565b601f8211156113805761135181611216565b61135a8461122b565b81016020851015611369578190505b61137d6113758561122b565b83018261131c565b50505b505050565b600082821c905092915050565b60006113a360001984600802611385565b1980831691505092915050565b60006113bc8383611392565b9150826002028217905092915050565b6113d582611028565b67ffffffffffffffff8111156113ee576113ed610caf565b5b6113f882546111e5565b61140382828561133f565b600060209050601f8311600181146114365760008415611424578287015190505b61142e85826113b0565b865550611496565b601f19841661144486611216565b60005b8281101561146c57848901518255600182019150602085019450602081019050611447565b868310156114895784890151611485601f891682611392565b8355505b6001600288020188555050505b505050505050565b7f4e487b7100000000000000000000000000000000000000000000000000000000600052603260045260246000fd5b7f4e487b7100000000000000000000000000000000000000000000000000000000600052601160045260246000fd5b60006115078261129a565b91507fffffffffffffffffffffffffffffffffffffffffffffffffffffffffffffffff8203611539576115386114cd565b5b600182019050919050565b600082825260208201905092915050565b7f596f7520646f6e27742068617665206163636573730000000000000000000000600082015250565b600061158b601583611544565b915061159682611555565b602082019050919050565b600060208201905081810360008301526115ba8161157e565b905091905056fea26469706673582212207f5d3075c9f07288c308688aa1f2e13b8b4a3ccb8796e707d8c13b60eac018e564736f6c63430008140033",
  "linkReferences": {},
  "deployedLinkReferences": {}
}